:1000000015C1000044C1000042C1000040C1000011
:100010003EC100003CC100003AC1000038C10000F0
:1000200036C100000C94AD090C94AD090C94AD09D7
:100030002EC100002CC100002AC1000028C1000010
:1000400026C1000024C1000022C1000020C1000020
:100050001EC100001CC100001AC1000038C400000D
:1000600016C100008CC200001CC1000010C10000BD
:100070000EC100000CC100000AC1000008C1000050
:1000800006C1000004C1000002C1000000C1000060
:10009000FEC00000FCC00000FAC000000C945C0A26
:1000A000F6C00000F4C00000F2C00000F0C0000084
:1000B000EEC00000ECC00000EAC00000E8C0000094
:1000C000E6C00000E4C00000E2C00000E0C00000A4
:1000D000DEC00000DCC00000DAC00000D8C00000B4
:1000E000D6C00000AC03AF039E03A203A603E60341
:1000F000B303B703BD03C103C503CB03CF03D303CE
:10010000E603D903DD03E1030000210024002700FA
:100110002A002D0030003300010100000401070116
:100120000A0100002200250028002B002E003100CB
:10013000340002010000050108010B010505050559
:10014000070508080808020202020A0A080804044F
:10015000040401010101010101010303030303037D
:100160000303040707070C0C0C0C0C0C0C0C02020C
:10017000020206060606060606060B0B0B0B0B0B09
:100180000B0B010210202008081020401020408096
:10019000020102010804020101020408102040804B
:1001A00080402010080402018004020180402010D9
:1001B0000804020108040201010204081020408022
:1001C000010204081020408000000A0B02090C0DF7
:1001D0000E080703040100000000000000000000FA
:1001E000000000000000000000000000000000000F
:1001F00000000000121110000000000000000000CC
:1002000000000000000000000000000000000000EE
:1002100020002300260029002C002F0032000001BE
:1002200000000301060109012D14231411241FBE2F
:10023000CFEFD1E2DEBFCDBF00E00CBF12E0A0E007
:10024000B2E0E2E3F1E300E00BBF02C007900D92E1
:10025000A237B107D9F725E0A2E7B2E001C01D92AD
:10026000A33CB207E1F711E0C5E1D1E000E006C030
:1002700021970109802FFE010E944716C431D10742
:1002800080E00807A9F70E94730F0C948818B8CE75
:1002900085E593E060D021E0892B09F420E0822FEE
:1002A00008951F920F920FB60F9211240BB60F9262
:1002B0002F933F934F935F936F937F938F939F936E
:1002C000AF93BF93EF93FF9385E593E08ED1FF91BA
:1002D000EF91BF91AF919F918F917F916F915F91BE
:1002E0004F913F912F910F900BBE0F900FBE0F902B
:1002F0001F901895FC01538D448D252F30E0842FDD
:1003000090E0821B930B541710F0CF96089501973D
:100310000895FC01918D828D981761F0828DDF0127
:10032000A80FB11D5D968C91928D9F5F9F73928FE8
:1003300090E008958FEF9FEF0895FC01918D828DDD
:10034000981731F0828DE80FF11D858D90E00895AA
:100350008FEF9FEF0895FC01918D228D892F90E002
:10036000805C9F4F821B91098F739927089580E0CD
:1003700090E0892B19F08CDF811125C080E090E09E
:10038000892B41F080E090E0892B21F00E94000051
:1003900081111CC080E090E0892B41F080E090E06A
:1003A000892B21F00E940000811113C080E090E0B1
:1003B000892BA1F080E090E0892B81F00E94000061
:1003C00081110AC008950E940000D8CF0E94000049
:1003D000E1CF0E940000EACF0C9400000895DC01F8
:1003E000ED91FC91119712968D919C911397E817BE
:1003F000F90739F08191ED93FC93FB01808381E053
:10040000089580E008952091C3023091C402281716
:10041000390771F49091C2028091C102981741F09E
:10042000E091C202F0E0EF57FD4F808190E0089527
:100430008FEF9FEF089508951F93CF93DF93DC0113
:100440005C962D913C915D972115310539F481E041
:1004500090E013969C938E9312973DC05196ED9128
:10046000FC91529750969C915097892F80951FB779
:100470005E964C915E9741FB772770F941FD609540
:10048000F8944081772311F0492B01C04823408321
:10049000E9012197F1F748E0508160FF02C0592B34
:1004A00001C058235083E9012197F1F76695415027
:1004B00099F7772321F090818923808303C080817D
:1004C000982B90831FBF5C968D919C915D970197AF
:1004D000F1F721E030E0C901DF91CF911F9108953C
:1004E0000E947418CF92DF92EF92FF920F931F93A6
:1004F000CF93DF931F921F92CDB7DEB77C01FC0133
:10050000608341830283F901DC011396C901800FE6
:10051000911FE817F90719F021912D93FACF68017F
:10052000F3E0CF0ED11C8FEF9FE39A838983A6015E
:10053000B701CE0101960E94730D29813A81209561
:100540008FE33827F701EC0DFD1D822F8F77808315
:10055000F701E00FF11F220F232F221F330B3195DC
:100560002F772483C80105960F900F90DF91CF91CC
:100570001F910F91FF90EF90DF90CF9008951F9201
:100580000F920FB60F9211240BB60F922F938F93E9
:100590009F93EF93FF93E0916503F0916603808151
:1005A000E0916B03F0916C0382FD12C09081809109
:1005B0006E038F5F8F7320916F03821751F0E0916C
:1005C0006E03F0E0EB5AFC4F958F80936E0301C0F1
:1005D0008081FF91EF919F918F912F910F900BBE92
:1005E0000F900FBE0F901F901895FC01848DDF01B6
:1005F000A80FB11DA35ABF4F2C91848D90E0019696
:100600008F739927848FA689B7892C93A089B18984
:100610008C9180648C93938D848D981306C002888E
:10062000F389E02D80818F7D80830895EF92FF9282
:100630000F931F93CF93DF93EC0181E0888F9B8D05
:100640008C8D981305C0E889F989808185FD23C0C8
:10065000F62E0B8D10E00F5F1F4F0F731127E02E4A
:100660008C8DE8120BC00FB607FCFACFE889F98928
:10067000808185FFF5CFCE01B8DFF2CF8B8DFE01F3
:10068000E80FF11DE35AFF4FF0820B8FEA89FB89D7
:100690008081806207C0EE89FF896083E889F989DB
:1006A00080818064808381E090E0DF91CF911F9111
:1006B0000F91FF90EF900895CF93DF93EC01888D19
:1006C0008823C1F0EA89FB89808185FD05C0A8895E
:1006D000B9898C9186FD0EC00FB607FCF5CF8081DD
:1006E00085FFF2CFA889B9898C9185FFEDCFCE0126
:1006F0007CDFE8CFDF91CF910895362F90E0FC01A9
:10070000E853FE4F4491FC01EE57FE4F2491FC014B
:10071000E45CFE4F9491992309F46BC0442309F4DF
:1007200055C050E0FA013197E231F10508F04EC0B2
:100730008827EE58FF4F8F4F0C944716809180000A
:100740008F7707C0809180008F7D03C080918000EB
:10075000877F809380003AC084B58F7702C084B5CC
:100760008F7D84BD33C08091B0008F7703C08091AE
:10077000B0008F7D8093B00029C0809190008F776A
:1007800007C0809190008F7D03C080919000877F8B
:10079000809390001BC08091A0008F7707C080914C
:1007A000A0008F7D03C08091A000877F8093A00070
:1007B0000DC0809120018F7707C0809120018F7D2F
:1007C00003C080912001877F80932001E92FF0E012
:1007D000EE0FFF1FEE5DFE4FA591B4918FB7F89419
:1007E000EC91311103C020952E2301C02E2B2C93A8
:1007F0008FBF0895CF93DF9390E0FC01EE57FE4F3B
:100800002491FC01E45CFE4F8491882361F190E027
:10081000880F991FFC01E85FFE4FC591D491FC0140
:10082000EE5DFE4FA591B491611109C09FB7F89498
:100830008881209582238883EC912E230BC062301F
:1008400061F49FB7F8943881822F80958323888341
:10085000EC912E2B2C939FBF06C08FB7F894E881A4
:100860002E2B28838FBFDF91CF9108953FB7F89447
:100870008091CA029091CB02A091CC02B091CD029E
:1008800026B5A89B05C02F3F19F00196A11DB11DEB
:100890003FBFBA2FA92F982F8827820F911DA11D26
:1008A000B11DBC01CD0142E0660F771F881F991F63
:1008B0004A95D1F708952FB7F8946091C6027091C8
:1008C000C7028091C8029091C9022FBF08951F925C
:1008D0000F920FB60F9211242F933F938F939F93F4
:1008E000AF93BF938091C6029091C702A091C802B6
:1008F000B091C9023091C50223E0230F2D3720F4B7
:100900000196A11DB11D05C026E8230F0296A11D69
:10091000B11D2093C5028093C6029093C702A09395
:10092000C802B093C9028091CA029091CB02A091F3
:10093000CC02B091CD020196A11DB11D8093CA02D7
:100940009093CB02A093CC02B093CD02BF91AF9114
:100950009F918F913F912F910F900FBE0F901F90FD
:100960001895FC0110821582148213821282118262
:10097000168217821086118608954130510561054F
:1009800020EE72076CF0411551056105E0E27E072B
:1009900024F04FEF5FEF6FEF7FE177FF12C004C0ED
:1009A00041E050E060E070EE7095609550954195A3
:1009B0005F4F6F4F7F4F440F551F661F771F41607A
:1009C00004C0440F551F661F771FFC01228133812D
:1009D000E42FEF73403451056105710510F4F0E028
:1009E00001C0F0E42F5F3F4FDC01A20FB31FEF2BDC
:1009F0001396EC93E6E07695679557954795EA95BB
:100A0000D1F7411551056105710511F7FC013383DB
:100A1000228308958F929F92AF92BF92DF92EF92BE
:100A2000FF920F931F93CF93DF93CDB7DEB7EF976E
:100A30000FB6F894DEBF0FBECDBFDC01ED91FC9187
:100A40001197E3A0F4A012968C9112978DA382E0E7
:100A500090E09CA38BA32EA326FF08C05F968C91E9
:100A60005F9723E030E03CA32BA38FA3FA018281A0
:100A700093812BA13CA14A01F4E08F0E911C40E030
:100A800050E08A01020F131F4817590779F0F4014B
:100A9000D1904F01E1E2AE2EB12CAC0EBD1E0A0D7D
:100AA0001B1DF801D4824F5F5F4FEBCF1CA30BA33C
:100AB0009E012B5D3F4FAB0113966C91CE010196C9
:100AC00011DDD701ED91FC910280F381E02DAC01A5
:100AD000BE016F5F7F4FC7011995EF960FB6F8946F
:100AE000DEBF0FBECDBFDF91CF911F910F91FF9061
:100AF000EF90DF90BF90AF909F908F9008952F92CE
:100B00003F924F925F926F927F928F929F92AF929D
:100B1000BF92CF92DF92EF92FF920F931F93CF93EA
:100B2000DF93CDB7DEB7C954D1090FB6F894DEBF55
:100B30000FBECDBF4C011B0126964FAF2697590122
:100B400023961FAF0EAF2397DB0114964D905D9057
:100B50006D907C901797AFDE6B017C0177FC07C02E
:100B6000AADE6B017C01C418D508E608F708F50178
:100B7000E0612596FFAFEEAF25972396EEADFFAD72
:100B8000239784819581A681B781B7FD2DC093DE1F
:100B90002396AEADBFAD23970D911D912D913C9144
:100BA000DC01CB01801B910BA20BB30B2396EEADA6
:100BB000FFAD239704811581268137818017910726
:100BC000A207B30788F0C401CCDE81E0D4018C9386
:100BD00012968C938EEF9FEFAFEFBFEFF4018683F9
:100BE0009783A087B18770C177FC47C064DEDC01C2
:100BF000CB018C199D09AE09BF0984159505A60581
:100C0000B705D8F158DE6B017C01D1011C968C919F
:100C10008F5F87FD8EC0D1011C968C931C97129616
:100C20009C919DA32496BFAD2497BEA38FA384E07F
:100C300090E09CA38BA32696EFAD2697E8A7D10161
:100C4000ED91FC911197A3A0B4A004E010E09E01E7
:100C50002B5D3F4F43E250E013966C91CE0101961D
:100C600041DCD501ED91FC910280F381E02DAC01D6
:100C7000BE016F5F7F4FC5011995F10100811181A0
:100C80005801F3E0AF0EB11CD80193968D919C9161
:100C90009497DC01ED91FC910284F385E02D199588
:100CA00097FD6BCF87FD04C0F8012281222331F02C
:100CB000D80111961C921E9212961C92F801208166
:100CC00031812032310540F4A9014F5F5F4F5183DC
:100CD0004083E20FF31F8383D8014D915C911197FC
:100CE00045305105F8F013968C91139787FF1AC081
:100CF00015968C9190E09A012550310928173907F3
:100D000089F4EFEFFFE3FA83E983B501CE010196A1
:100D1000EAD689819A8181389F4021F4E1E0D801A7
:100D20001296EC93D80112968C91882309F4ACCFDB
:100D300002C081E070CFD101ED91FC9111979381B8
:100D400013968C91981319CF8481833409F015CFB1
:100D500000811181055011095F01B6E0AB0EB11C95
:100D6000CE010196FEDDBAA2A9A2F501E00FF11FA6
:100D7000FCA3EBA3BE016E5F7F4FCE0181962FDBFC
:100D8000882309F48DC0BE016D5F7F4FCE0181962F
:100D900026DB882309F484C08B8184FD04C08B8109
:100DA00086FD0AC012C0BE016C5F7F4FCE018196E6
:100DB00016DB8111F4CF74C0BE016B5F7F4FCE0193
:100DC00081960DDB882309F46BC0BE016A5F7F4FFB
:100DD000CE01819604DBB82E882309F461C000E0BF
:100DE00010E020E030E0A9011BC021966FAD2197F3
:100DF000862F8F7390E0A0E0B0E0002E04C0880F33
:100E0000991FAA1FBB1F0A94D2F7282B392B4A2BF4
:100E10005B2B66FF25C00A5F1F4F0E31110501F1E4
:100E2000BE01605C7F4FCE01819627962FAF27973A
:100E300028963FAF289729964FAF29972A965FAFFC
:100E40002A97CDDA27962FAD279728963FAD28977A
:100E500029964FAD29972A965FAD2A978111C5CF64
:100E6000DA01C901B695A7959795879520FF07C028
:100E7000B095A095909581959F4FAF4FBF4F8F83B1
:100E80009887A987BA872B8120FF05C018161906F5
:100E90001A061B062CF4BB2019F081E0898303C0DD
:100EA000CE0101965EDD8981882309F466CE9C819E
:100EB000F1018485981361CE8AE0FE013196D40158
:100EC00001900D928A95E1F7C401C75BDF4F0FB621
:100ED000F894DEBF0FBECDBFDF91CF911F910F9170
:100EE000FF90EF90DF90CF90BF90AF909F908F904A
:100EF0007F906F905F904F903F902F900895CF928A
:100F0000DF92EF92FF920F931F93CF93DF93CDB7B2
:100F1000DEB72A970FB6F894DEBF0FBECDBF6C01C7
:100F20007A018B0120E430E041E050E0BC01CE01C9
:100F30000196E5DD8AE0FE013196D70101900D9220
:100F40008A95E1F7F701828180FF04C0868197814D
:100F500097FD08C0F7018481F601878F81E080A3A7
:100F600080E001C081E02A960FB6F894DEBF0FBE84
:100F7000CDBFDF91CF911F910F91FF90EF90DF9048
:100F8000CF9008952091C3023091C40228173907E9
:100F900069F48091C1022091C20290E0805C9F4F71
:100FA000821B910960E470E00C94341680E090E0BC
:100FB00008952091C3023091C40228173907B9F46B
:100FC0009091C2028091C102981789F0E091C2020B
:100FD000F0E0EF57FD4F80812091C20230E02F5F9B
:100FE0003F4F2F7333272093C20290E008958FEF75
:100FF0009FEF089585ED8093BC008091BC0084FD37
:10100000FCCF10927402089540910E03262F30E019
:10101000240F311D21323105DCF42091740224307B
:10102000C9F4FC0180E090E0861758F430910E037B
:101030002191DC01A251BD4FA30FB11D2C9301964C
:10104000F3CF80910E03680F60930E0380E0089544
:1010500081E0089582E00895E0917F02F09180029E
:10106000309729F010927602109275021994089523
:10107000CF93DF93AC01E0917D02F0917E02309737
:10108000F1F090917802809177029817C0F090E08B
:10109000292F30E02617370754F4D901A253BD4F4A
:1010A000EA01C20FD31F88818C939F5FF1CF10920A
:1010B000780260937702CB01DF91CF911994DF9191
:1010C000CF9108950895E091780280917702E81712
:1010D00030F4F0E0E253FD4F808190E008958FEF0F
:1010E0009FEF08959091780280917702981750F4BD
:1010F000E92FF0E0E253FD4F208130E09F5F9093B5
:10110000780202C02FEF3FEFC90108958091770266
:1011100090E020917802821B91090895CF93DF938C
:101120001F921F92CDB7DEB7CB01642F49835A833C
:101130006BDF4981842F5A81952F0F900F90DF919B
:10114000CF910895CF93DF931F92CDB7DEB7698318
:1011500061E0CE01019658DF81E090E00F90DF91D1
:10116000CF910895089580E090E0089508958F92BA
:101170009F92AF92BF92CF92DF92EF92FF920F9326
:101180001F93CF93DF93CDB7DEB760970FB6F89478
:10119000DEBF0FBECDBF6C01CE0101967C0100E029
:1011A00010E00C151D0554F48AE394E09BDFF70171
:1011B000819391937F010F5F1F4FF3CF8B819C81B0
:1011C0002D813E8149815A814130510509F0B2C0DB
:1011D0008130910509F447C0039709F0ABC08091B5
:1011E000D6049091D704FC01EE0FFF1FEE0FFF1FF6
:1011F000EE5CFA4F80809180A280B3808C01000F5A
:10120000111F000F111F0A5B1B4F422F220F550B9E
:10121000660B770B9A01AB012C593F4F4F4F5F4F35
:10122000880F991F880F991FFC01E65FFA4F808194
:101230009181A281B381BC01CD01681979098A0924
:101240009B090E949D1528EC30E040E050E00E9490
:10125000CE15820E931EA41EB51EF80180829182C7
:10126000A282B38267C06901330FEE08FF08809144
:10127000D2049091D304F5E6CF16D104E104F10431
:10128000B0F5FC01EE0FFF1FEE0FFF1FEE5CFA4FF3
:1012900080809180A280B3808C01000F111F000F0D
:1012A000111F0A5B1B4F880F991F880F991FFC01A4
:1012B000E65FFA4F80819181A281B381BC01CD01AB
:1012C000681979098A099B09A70196010E949D1551
:1012D00024E630E040E050E00E94CE15820E931EDE
:1012E000A41EB51EF80180829182A282B382F7FE0D
:1012F00004C0C701B601CFD506C02AE0B701A601D8
:1013000085E593E081D569E672E085E593E0609636
:101310000FB6F894DEBF0FBECDBFDF91CF911F9106
:101320000F91FF90EF90DF90CF90BF90AF909F9084
:101330008F9055C560960FB6F894DEBF0FBECDBF37
:10134000DF91CF911F910F91FF90EF90DF90CF90A1
:10135000BF90AF909F908F9008951F920F920FB6FD
:101360000F9211240BB60F922F933F934F935F93DD
:101370006F937F938F939F93AF93BF93EF93FF935D
:10138000E091C302F091C402309709F451C0968DE8
:10139000A685B785858591FF04C09C91892329F492
:1013A00047C09C91892309F043C0A389B4899C91CB
:1013B0008589809589238C93868997890197F1F790
:1013C000608D718DA685B785558538E020E0CB010D
:1013D0000197F1F7822F90E095958795282F4C91F2
:1013E000452309F02068315091F7868D81FD2095C5
:1013F0008091C10290E001968F7399273091C202CB
:10140000381749F0A091C102B0E0AF57BD4F2C93FF
:101410008093C10203C0868D8160868F828D938DFB
:101420000197F1F7A389B4899C918589892B8C93C5
:10143000FF91EF91BF91AF919F918F917F916F91AC
:101440005F914F913F912F910F900BBE0F900FBE68
:101450000F901F901895CF93DF93FC01828D938D91
:10146000892B31F1A091C302B091C402AE17BF071E
:10147000F9F0109751F05396CD91DC9154979881E3
:1014800055968C91809589238883868D8E7F868F53
:101490001092C1021092C202F093C402E093C30200
:1014A000A389B4899C918589892B8C9381E001C0A3
:1014B00080E0DF91CF9108951F920F920FB60F92A7
:1014C00011240BB60F922F933F934F935F936F931B
:1014D0007F938F939F93AF93BF93EF93FF938091ED
:1014E000B900887F803609F49CC068F5883209F419
:1014F0005BC090F4803109F454C038F4882309F4B7
:10150000F6C0883009F44DC0F5C0883109F44CC0EC
:10151000803209F45DC0EEC0803409F468C048F43C
:10152000803309F455C0883309F0E4C08093310357
:10153000D8C0803509F44FC0883509F45DC08834BF
:1015400009F0D8C0D6C0883909F4C7C0A8F48837D4
:1015500009F467C038F4883609F463C0803709F4A9
:1015600060C0C8C0883809F4B8C0803909F45FC0C9
:10157000803809F0BFC05BC0803B09F486C038F4F6
:10158000803A09F466C0883A09F47FC0B3C0803C51
:1015900009F4A7C0883C09F4A4C0883B09F48AC0B8
:1015A000A9C08091540310C09091530380915203BD
:1015B000981770F5E091530381E08E0F80935303E9
:1015C000F0E0EE5CFC4F80818093BB0085EC86C030
:1015D000809331038EC0E091530381E08E0F80939E
:1015E00053038091BB00F0E0EE5CFC4F8083909150
:1015F0005303809152036EC0E091530381E08E0F3C
:10160000809353038091BB00F0E0EE5CFC4F80833D
:101610008091730281116DC081E08093720284EA2F
:1016200061C083E08093740210923003CFCF809129
:101630003003803208F051C0E091300381E08E0F1A
:10164000809330038091BB00F0E0E05FFC4F80832B
:10165000BDCF85EC8093BC00109274028091300362
:10166000803230F4E0913003F0E0E05FFC4F108214
:101670006091300370E0E0917902F0917A0280E1AC
:1016800093E019951092300335C084E08093740282
:1016900010920F0310920E03E0917B02F0917C02F6
:1016A000199580910E03811105C081E080930E038E
:1016B0001092EE02E0910F0381E08E0F80930F03F2
:1016C000F0E0E251FD4F80818093BB0090910F03C9
:1016D00080910E03981708F479CF85E88093BC00B9
:1016E00009C085EC8093BC001092740203C0109274
:1016F000310380DCFF91EF91BF91AF919F918F916A
:101700007F916F915F914F913F912F910F900BBE01
:101710000F900FBE0F901F9018952F923F924F92EF
:101720005F926F927F928F929F92AF92BF92CF9271
:10173000DF92EF92FF920F931F93CF93DF9300D02E
:101740001F921F92CDB7DEB77C017A8369831A019D
:1017500069014C0188EB880E911C6BE672E0C401B4
:101760002AD357019EEBA90EB11C6BE672E0C501AE
:1017700022D32701ACEE4A1AAEEF5A0A3701B8E875
:101780006B1ABEEF7B0AC201ECD8EAE04E0E511C88
:1017900046145704C1F7B601C401EDD2B801C50122
:1017A000EAD28FE190E00E9463168C01DC0113966F
:1017B0001C921E92129788EE93E0A0E0B0E0F80130
:1017C00084839583A683B7838AE092E091838083A4
:1017D000178A168A118E108E138E128E158E148E05
:1017E000668D6E7F6D7F668F6695617081E068277C
:1017F000822D0E947D0361E0822D0E94FA03C101C7
:101800009927FC01EE57FE4FE491D8015096EC93D6
:10181000FC01E45CFE4FE491F0E0EE0FFF1FEE5D93
:10182000FE4F85919491F801928B818B60E08981C4
:101830000E94FA03D8015E968C9181FD04C061E09C
:1018400089810E947D038981F801848789819A8139
:101850009927FC01EE57FE4FE491D8011D96EC93B9
:10186000FC01E45CFE4FE491F0E0EE0FFF1FE25F4D
:10187000FD4F85919491F80197878687F701EC5485
:10188000FF4F1183008385E290E00E946316FC0104
:1018900011821082128214A303A3170186EB280E73
:1018A000311CD101ED93FC93F701E056FF4FFA8311
:1018B000E98300E010E094E6892E912CA12CB12C54
:1018C00044244A94542C3201F601848195810817EE
:1018D000190708F05DC0B801C6013BD2DC012C91AC
:1018E00082E290E02D830E946316AC01F1018081B9
:1018F0009181DA0111969C938E9312961C92129705
:10190000E0E81396EC9313971C961C921C971D9677
:101910001D921D921D921C925097CA0145964B83B1
:101920005C831FD84B815C81FA01178E10A22D8138
:101930008FE9820F8A3108F420528FEB820F8A31AF
:1019400020F080ED820F8A3018F4DA0112962C9381
:10195000FA0184829582A682B78240865186628689
:10196000738611A2E981FA8141935193FA83E98345
:10197000B801C601EED1DC018C91F701B2E08B0217
:10198000E00DF11D112413A702A70F5F1F4F9CCF7D
:101990000F900F900F900F900F90DF91CF911F91AC
:1019A0000F91FF90EF90DF90CF90BF90AF909F90FE
:1019B0008F907F906F905F904F903F902F90089501
:1019C000CF92DF92EF92FF920F931F93CF93DF930B
:1019D0006C017A018B01C0E0D0E0CE15DF0589F003
:1019E000D8016D918D01D601ED91FC910190F081AE
:1019F000E02DC6011995892B11F47E0102C02196B4
:101A0000ECCFC701DF91CF911F910F91FF90EF9025
:101A1000DF90CF900895EF92FF920F931F93CF9393
:101A2000DF93EC017B018A0188819981009729F07D
:101A30002A813B8124173507F8F4B8016F5F7F4F87
:101A40000E949017009759F0998388831B830A831B
:101A50002C813D81232B81F4FC0110820DC08881F3
:101A60009981009711F00E94F816198218821D8240
:101A70001C821B821A8207C01D830C83B7018881D8
:101A800099810E948118CE01DF91CF911F910F9112
:101A9000FF90EF900895E5E5F3E0A089B18982E039
:101AA0008C93A485B5851C92A685B7858FEC8C9305
:101AB000108EA489B58986E08C93A289B3898C9114
:101AC00080618C93A289B3898C9188608C93A28960
:101AD000B3898C9180688C930288F389E02D808192
:101AE0008F7D80830895DC01FB01460F571FE417AB
:101AF000F507E1F021912F778D919C911197822725
:101B000011969C938E9327E06D917C911197CB0158
:101B10009695879560FF04C030EF832732E29327C4
:101B200011969C938E93215079F7E1CF0895AF924F
:101B3000BF92CF92DF92EF92FF920F931F93CF93BA
:101B4000DF93CDB7DEB762970FB6F894DEBF0FBE56
:101B5000CDBF6C017B015A01FB0180859185A28577
:101B6000B3858F87988BA98BBA8B0E945B046B8798
:101B70007C878D879E87CE0101960E94B104F70174
:101B800080A1811113C0AE014F5F5F4FBE01655F41
:101B90007F4FC701B4D9882349F08AE0FE0131960E
:101BA000D60101900D928A95E1F70AC08E01055F7A
:101BB0001F4F20E030E0A501B701C6010E947F055C
:101BC000C60162960FB6F894DEBF0FBECDBFDF919F
:101BD000CF911F910F91FF90EF90DF90CF90BF902A
:101BE000AF9008953F924F925F926F927F928F9243
:101BF0009F92AF92BF92CF92DF92EF92FF920F939C
:101C00001F93CF93DF93CDB7DEB762970FB6F894EB
:101C1000DEBF0FBECDBF7C016B015A01FC014584C4
:101C2000568467847088FFEF4F1A5F0A6F0A7F0A35
:101C3000FC01458656866786708A81A1882331F02B
:101C400020E030E0C7010E940A055DC0F7018085F1
:101C50009185A285B3858D839E83AF83B8870E94CB
:101C60005B0469837A838B839C83F70180A188233B
:101C700079F081E090E0F701928B818B80E490E035
:101C8000948B838B878D8F5F87FF0DC081E00BC0A6
:101C9000A7014B5E5F4FBE016F5F7F4FC7012FD91A
:101CA000811131C0E6CFF701878F8AE0382EC70156
:101CB00045964C0120E430E0A501B601C7010E9421
:101CC0000A05F70123893489418952898E010F5F02
:101CD0001F4FB701CE0109960E947F05FE0139967C
:101CE000D401832D01900D928A95E1F7F701878940
:101CF00080FF04C0838D948D97FD05C0F701918D01
:101D0000878D9813D7CFFA82E9824B825C826D82ED
:101D10007E822E2D3A81442D5C816D817E8180E012
:101D200090E062960FB6F894DEBF0FBECDBFDF9194
:101D3000CF911F910F91FF90EF90DF90CF90BF90C8
:101D4000AF909F908F907F906F905F904F903F905B
:101D50000895FC01248135816217730720F4808186
:101D60009181009729F41092BE058EEB95E00895BD
:101D7000860F971F0895CF93DF93EC01FB01861721
:101D80009707A9F0608171816115710521F0448187
:101D9000558141DE0CC088819981009711F00E9425
:101DA000F816198218821D821C821B821A82CE01AB
:101DB000DF91CF910895FC0111821082138212826B
:101DC000158214826115710549F0FB010190002014
:101DD000E9F73197AF01461B570B1DCE08956115EA
:101DE000710579F0FB0101900020E9F73197AF010F
:101DF000461B570BDC01ED91FC910280F381E02D35
:101E0000199480E090E008954F925F926F927F92D4
:101E1000EF92FF920F931F93CF93DF93CDB7DEB76F
:101E2000A1970FB6F894DEBF0FBECDBF7C01FA01BB
:101E3000CB0119A2223008F42AE08E010F5D1F4F5A
:101E4000422E512C612C712CBF01A301920184D62A
:101E5000F901CA01015011096A3014F4605D01C032
:101E6000695CD8016C93232B242B252B69F7B801CF
:101E7000C701B5DFA1960FB6F894DEBF0FBECDBF88
:101E8000DF91CF911F910F91FF90EF907F906F9016
:101E90005F904F900895CF92DF92EF92FF92CF9391
:101EA000DF936B017C01E0915503F09156030190A3
:101EB000F081E02D6DE285E593E01995EC01442772
:101EC0005527BA014C195D096E097F092AE085E59D
:101ED00093E09ADF8C0F9D1FDF91CF91FF90EF90E1
:101EE000DF90CF900895CF93DF93CDB7DEB7C35582
:101EF000D1090FB6F894DEBF0FBECDBF789484B57C
:101F0000826084BD84B5816084BD85B5826085BDF5
:101F100085B5816085BD80916E00816080936E0083
:101F20001092810080918100826080938100809175
:101F30008100816080938100809180008160809326
:101F400080008091B10084608093B1008091B000E6
:101F500081608093B00080919100826080939100B5
:101F600080919100816080939100809190008160C8
:101F7000809390008091A10082608093A100809165
:101F8000A10081608093A1008091A0008160809376
:101F9000A000809121018260809321018091210124
:101FA00081608093210180912001816080932001D4
:101FB00080917A00846080937A0080917A008260B8
:101FC00080937A0080917A00816080937A0080917A
:101FD0007A00806880937A001092C10010923604D3
:101FE0001092370410923804109239041092F403BE
:101FF0001092F5031092F6031092F7030E945B040F
:102000006B017C014B015C0128EB820E2BE0921EE0
:10201000A11CB11C0E945B046C157D058E059F05FB
:1020200028F086169706A806B906A0F785E593E07E
:1020300090933504809334042EDD0E945B046093FA
:10204000F4037093F5038093F6039093F7036AE526
:1020500072E08091340490913504C1DE0E945B04EB
:102060006B017C014B015C013AE0830E911CA11CC9
:10207000B11C0E945B046C157D058E059F0528F040
:1020800086169706A806B906A0F781E08093080493
:1020900061E084E00E94FA0361E084E00E947D0335
:1020A000FADCE091FA04F091FB04138E128E118E8B
:1020B000108E178A168A8DE991E0958F848F84851A
:1020C00096EF980F943048F02EEC280F243028F02B
:1020D00022EC280F283008F062C02DEB30E0378B5F
:1020E000268B2BE931E0318F208F2CE231E0338FCA
:1020F000228F943060F02EEC280F243040F042EC18
:10210000480F483008F497C320E030E096C328E633
:1021100030E0A8E6B0E04C91943018F08E5388304F
:1021200010F081E001C084E0842BD9018C93848578
:1021300096EF980F943058F02EEC280F243038F09A
:1021400022EC280F283030F020E030E005C02BE6EC
:1021500030E002C02DE630E0348B238B943010F455
:1021600086500BC0823379F0833379F0843379F071
:1021700092EC980F983068F4892F91E001C0990F84
:102180008A95EAF707C098E005C094E003C092E0A2
:1021900001C091E0958B848D958D0197F1F7CF016A
:1021A0005AD98091FA049091FB0455D916EEE12E8C
:1021B00014E0F12E00E010E08091020590910305FB
:1021C0000817190740F5F701819191917F011C8251
:1021D0001B82AE014F5F5F4F60E270E003DD2AA714
:1021E0003BA74CA75DA76EA77FA7EAA5FBA54CA5BB
:1021F0005DA56EA57FA585859685A785B0894817BD
:1022000059076A077B0721F0CE0180960E94B1042E
:102210000F5F1F4FD1CF22E335E062963FAF2EAF65
:102220006297B6EE2B2EB4E03B2E00E010E08091DA
:102230000205909103050817190708F0A9C0B80115
:1022400084E095E086DDDC018C918C3649F0B801A4
:1022500084E095E07EDDDC018C918D3609F088C04C
:10226000F1016081718148E050E0CE0101965FDCB0
:102270008F809884A984BA84D1016D917C9149E0C2
:1022800050E0CE01019653DCCF80D884E984FA84F3
:10229000C701B601681979098A099B095FD32B0127
:1022A0003C012AE037ED43EA5CE393D3ACD4860EDD
:1022B000971EA81EB91E6296EEADFFAD6297808292
:1022C0009182A282B382B897C61AD70AE80AF90A9D
:1022D000C082D182E282F3822DEC3CEC4CEC5DE3D7
:1022E000C301B20176D38FD4F101FC97718360836F
:1022F000B8018EEF94E02DDDDC01EC91EE0FFF0BC9
:10230000E059FB4FE080F180F701EE0FFF1FE6552B
:10231000FB4F208131812233310554F1F701EE0F5B
:10232000FF1FE254FB4F42E350E051834083C7015B
:10233000880F991FDC01AA56BB4F7D01C901330FDD
:10234000AA0BBB0B9C01AD01215031094109510978
:10235000A2E3B0E03FD424E630E040E050E01ED4F9
:10236000DA01C9010196A11DB11DF7019183808396
:102370000F5F1F4FF2E02F0E311C62962EAD3FAD66
:1023800062972C5F3F4F62963FAF2EAF62974FCF61
:102390008091D6049091D7049C01220F331F220F05
:1023A000331FA9014E5C5A4F7A01DA018D909D903E
:1023B000AD90BC909C01220F331F220F331FF901F7
:1023C000EA5BFB4F6F018901065F1A4FF8018081BC
:1023D0009181A281B3819C01AD01281939094A0973
:1023E0005B09A6E9B0E0F6D328EC30E040E050E02D
:1023F000D5D3820E931EA41EB51ED6018D929D923A
:10240000AD92BC92139780EE91EBAFEFBFEFF70167
:1024100080839183A283B38380E29EE4A0E0B0E056
:10242000F80180839183A283B3838EE08093BA0006
:102430008CE298E090937C0280937B0288E398E0A2
:1024400090937A0280937902109278021092770228
:1024500010927602109275021092740281E08093BD
:1024600073021092720261E084E10E947D0361E0D8
:1024700085E10E947D038091B9008E7F8093B90031
:102480008091B9008D7F8093B90088E48093B80073
:1024900085E48093BC008BE48093B80087EB98E0E0
:1024A00090937E0280937D0286EB98E09093800269
:1024B00080937F0260E084E00E947D039AE5892E8C
:1024C00095E0992E26E4E22E24E0F22E3EE6C32E7D
:1024D00034E0D32E46E9242E44E0342E06EE14E0F8
:1024E000A12CB12C8091020590910305A816B90684
:1024F00008F055C1B50184E095E02BDCDC018C913E
:102500008C3609F0E6C0F701408151816281738108
:10251000E451FF4F80819181A281B381481759070F
:102520006A077B070CF488C0B89780819181A281EB
:10253000B38184179507A607B7070CF47DC0F60191
:1025400080819181A281B3819801285231096296DC
:102550003FAF2EAF6297481759076A077B0769F4A8
:10256000D1012D913C916296EEADFFAD62978081D5
:1025700091812817390709F45FC0D1014D905C9013
:10258000052C000C66087708F8010190F081E02D19
:102590006496FFAFEEAF649721E030E03C832B837D
:1025A00081E08D83CE0101960E94BD0477FC15C0A9
:1025B0008B819C819C012F5F3F4F3C832B83E5E007
:1025C000F0E0EC0FFD1FE80FF91F22E02083B301BC
:1025D000A201CE0101960E94BD04AE014F5F5F4F84
:1025E00064E270E064968EAD9FAD6497FBDA2B9643
:1025F0002FAF2B972C963FAF2C972D964FAF2D9743
:102600002E965FAF2E972F966FAF2F9760967FAF66
:102610006097F70180819181A281B381F601808367
:102620009183A283B383D1018D919C916296EEAD8B
:10263000FFAD629791838083D8016D917C9141E0D9
:1026400050E0CE01C49673DAFE01F496D4018AE01C
:1026500001900D928A95E1F7F401828181FD8DC090
:10266000D8018D919C91E1E0F0E0FC83EB831D8229
:10267000AE014F5F5F4F65E270E0B4DA25962FAF91
:10268000259726963FAF269727964FAF27972896F0
:102690005FAF289729966FAF29972A967FAF2A9721
:1026A0002696EEADFFAD26972A964CAD5DAD6EAD8C
:1026B0007FAD2A9785859685A785B08948175907E4
:1026C0006A077B0709F459C0CE018A960E94B104BB
:1026D00054C0B50184E095E03CDBDC018C918D3683
:1026E00009F04BC0F7014081518162817381F6018D
:1026F00080819181A281B381481759076A077B07BE
:1027000061F1D8016D907C90E1E0F0E0FC83EB8317
:1027100082E08D83CE0101960E94BD04AE014F5F21
:102720005F4F64E270E0C3015DDA2EAF3FAF2196E8
:102730004FAF219722965FAF229723966FAF2397D3
:1027400024967FAF2497F70180819181A281B38184
:10275000F60180839183A283B383D8016D917C912C
:1027600042E050E0CE018096E2D9FE01B096D4015D
:102770008AE001900D928A95E1F7BFEFAB1ABB0A90
:102780000E5F1F4FEAE08E0E911CF4E0EF0EF11C7D
:1027900024E0C20ED11C32E0230E311CA3CE809166
:1027A000D6049091D7042AE0289FF001299FF00DCC
:1027B0001124E05AFA4F408151816281738177FF81
:1027C00004C0CB01BA0167DB04C02AE085E593E0D1
:1027D0001BDB69E672E085E593E001DB61E084E004
:1027E0000E947D030E9436044B015C0184E6C82EE2
:1027F000D12CE12CF12C0E943604DC01CB0188198C
:102800009909AA09BB09883E9340A105B10558F072
:1028100041E0C41AD108E108F10858EE850E53E0F2
:10282000951EA11CB11CC114D104E104F10419F7D7
:102830000E94B7013FCE28E630E0483008F469CC6A
:10284000A0E0B0E068CC8091040590910505D0D25D
:102850008091FE049091FF04CBC20F931F93CF93FE
:10286000DF93CDB7DEB72C970FB6F894DEBF0FBE5F
:10287000CDBFE5E5F3E01382128288EE93E0A0E09D
:10288000B0E084839583A683B7832CE132E0318363
:10289000208325EC30E03587248724EC30E037872F
:1028A000268720EC30E0318B208B21EC30E0338B1D
:1028B000228B22EC30E0358B248B26EC30E0378BFA
:1028C000268B118E128E138E148EE2EFF3E0168299
:1028D0001782108611861286138614861586168630
:1028E0001786108A118A128A138A148A158AEAE3D3
:1028F000F4E01382128284839583A683B7838EE2E9
:1029000092E0918380836CE672E0CE01079653DA01
:102910006FE672E0CE0101964EDA8E01095F1F4F1D
:102920009E012F5F3F4F4BE050E06AE070E086E48D
:1029300094E00E948D0B89819A815AD28F8198856B
:1029400057D22C960FB6F894DEBF0FBECDBFDF91E5
:10295000CF911F910F910895E89409C097FB3EF421
:1029600090958095709561957F4F8F4F9F4F9923DC
:10297000A9F0F92F96E9BB279395F695879577955A
:102980006795B795F111F8CFFAF4BB0F11F460FF1A
:102990001BC06F5F7F4F8F4F9F4F16C0882311F072
:1029A00096E911C0772321F09EE8872F762F05C086
:1029B000662371F096E8862F70E060E02AF09A9521
:1029C000660F771F881FDAF7880F9695879597F916
:1029D00008950BD078C069D028F06ED018F09523F8
:1029E00009F05AC05FC01124A2C07ED0A0F3959F09
:1029F000D1F3950F50E0551F629FF001729FBB27E6
:102A0000F00DB11D639FAA27F00DB11DAA1F649F91
:102A10006627B00DA11D661F829F2227B00DA11D44
:102A2000621F739FB00DA11D621F839FA00D611DCA
:102A3000221F749F3327A00D611D231F849F600DEB
:102A4000211D822F762F6A2F11249F5750408AF024
:102A5000E1F088234AF0EE0FFF1FBB1F661F771FB0
:102A6000881F91505040A9F79E3F510570F014C047
:102A70005EC05F3FECF3983EDCF3869577956795F3
:102A8000B795F795E7959F5FC1F7FE2B880F911DCE
:102A90009695879597F9089597F99F6780E870E074
:102AA00060E008959FEF80EC089500240A941616C4
:102AB000170618060906089500240A94121613062C
:102AC000140605060895092E0394000C11F48823BA
:102AD00052F0BB0F40F4BF2B11F460FF04C06F5FD6
:102AE0007F4F8F4F9F4F089557FD9058440F551FAC
:102AF00059F05F3F71F04795880F97FB991F61F080
:102B00009F3F79F087950895121613061406551FF6
:102B1000F2CF4695F1DF08C0161617061806991F62
:102B2000F1CF86957105610508940895E894BB2757
:102B300066277727CB0197F90895DB018F939F9341
:102B400049D0BF91AF91A29F800D911DA39F900D81
:102B5000B29F900D11240895A1E21A2EAA1BBB1B4F
:102B6000FD010DC0AA1FBB1FEE1FFF1FA217B30759
:102B7000E407F50720F0A21BB30BE40BF50B661F6F
:102B8000771F881F991F1A9469F760957095809533
:102B900090959B01AC01BD01CF010895052E97FBD7
:102BA00016F400940FD057FD05D0D6DF07FC02D0F5
:102BB00046F408C050954095309521953F4F4F4FB2
:102BC0005F4F089590958095709561957F4F8F4FD9
:102BD0009F4F089509D0A59F900DB49F900DA49F7D
:102BE000800D911D11240895A29FB001B39FC001D3
:102BF000A39F700D811D1124911DB29F700D811D29
:102C00001124911D089504D06894B11190CF0895B6
:102C100073DF88F09F5790F0B92F9927B751A0F034
:102C2000D1F0660F771F881F991F1AF0BA95C9F760
:102C300012C0B13081F07ADFB1E0089577CF672F0D
:102C4000782F8827B85F39F0B93FCCF38695779510
:102C50006795B395D9F73EF49095809570956195F9
:102C60007F4F8F4F9F4F089597FB072E16F40094C8
:102C700006D077FD08D013D007FC05D03EF4909520
:102C800081959F4F0895709561957F4F0895EE0F40
:102C9000FF1F881F8BBF0790F691E02D1994AA1B88
:102CA000BB1B51E107C0AA1FBB1FA617B70710F037
:102CB000A61BB70B881F991F5A95A9F78095909569
:102CC000BC01CD010895CF93DF938230910510F4BC
:102CD00082E090E0E091C105F091C20520E030E093
:102CE000C0E0D0E0309711F1408151814817590779
:102CF000C0F04817590761F482819381209719F039
:102D00009B838A832BC09093C2058093C10526C004
:102D10002115310519F04217530718F49A01BE0125
:102D2000DF01EF010280F381E02DDCCF21153105B9
:102D300009F1281B390B2430310590F412968D913E
:102D40009C9113976115710521F0FB019383828398
:102D500004C09093C2058093C105FD01329644C022
:102D6000FD01E20FF31F81939193225031092D93BE
:102D70003C933AC02091BF053091C005232B41F40C
:102D800020910202309103023093C0052093BF05C9
:102D900020910002309101022115310541F42DB737
:102DA0003EB74091040250910502241B350BE0917F
:102DB000BF05F091C005E217F307A0F42E1B3F0BEF
:102DC0002817390778F0AC014E5F5F4F241735079D
:102DD00048F04E0F5F1F5093C0054093BF0581938D
:102DE000919302C0E0E0F0E0CF01DF91CF91089530
:102DF0000F931F93CF93DF93009709F48CC0FC01CE
:102E00003297138212820091C1051091C2050115FB
:102E1000110581F420813181820F931F2091BF051C
:102E20003091C0052817390779F5F093C005E09374
:102E3000BF0571C0D80140E050E0AE17BF0750F4A5
:102E400012962D913C911397AD012115310509F191
:102E5000D901F3CF9D01DA0133832283608171812F
:102E6000860F971F8217930769F4EC012881398137
:102E7000260F371F2E5F3F4F318320838A819B812E
:102E800093838283452B29F4F093C205E093C10517
:102E900042C01396FC93EE931297ED01499159911C
:102EA0009E01240F351FE217F30771F48081918191
:102EB000840F951F029611969C938E938281938125
:102EC00013969C938E931297E0E0F0E0D80112964F
:102ED0008D919C911397009719F0F8018C01F6CF12
:102EE0008D919C9198012E5F3F4F820F931F2091EF
:102EF000BF053091C0052817390769F4309729F4C8
:102F00001092C2051092C10502C013821282109362
:102F1000C0050093BF05DF91CF911F910F910895D8
:102F20006F927F928F929F92AF92BF92CF92DF92D9
:102F3000EF92FF920F931F93CF93DF93EC010097D3
:102F400081F4CB01DF91CF911F910F91FF90EF9012
:102F5000DF90CF90BF90AF909F908F907F906F90B9
:102F6000B2CEFC01E60FF71F9C0122503109E21797
:102F7000F30708F4A8C0D9010D911C911197061709
:102F80001707A8F00530110508F49BC0C801049785
:102F90008617970708F495C002501109061B170BF6
:102FA000019311936D937C93CF0122DF8AC05B0163
:102FB000A01AB10A4C01800E911EA091C105B091DA
:102FC000C20540E050E0E12CF12C109709F44AC012
:102FD000A815B905D1F56D907C901197630182E039
:102FE000C80ED11CCA14DB0480F1A3014A195B0985
:102FF0006A0182E0C80ED11C1296BC9012971396FB
:10300000AC91B5E0CB16D10440F0B282A3835183DA
:103010004083D9016D937C930AC00E5F1F4FC3019B
:10302000800F911FF90191838083EB2DFA2FE1141A
:10303000F10431F0D7011396FC93EE93129741C03F
:10304000F093C205E093C1053CC08D919C9111970E
:103050004817590708F4AC017D0112960D90BC91F8
:10306000A02DB3CF8091BF059091C005881599051B
:10307000E1F446175707C8F48091000290910102CD
:10308000009741F48DB79EB740910402509105021C
:10309000841B950BE817F907B0F4F093C005E09393
:1030A000BF05F901718360830CC0CB010CDE7C018C
:1030B000009749F0A801BE011BD0CE0199DEC701DF
:1030C00004C0CE0102C080E090E0DF91CF911F915B
:1030D0000F91FF90EF90DF90CF90BF90AF909F90B7
:1030E0008F907F906F90089581E090E0F89410C0E9
:1030F000FB01DC0102C001900D9241505040D8F715
:103100000895FB01DC0101900D920020E1F7089584
:1031100011E0C5E1D1E000E005C0802FFE01B7DD80
:103120002196011DC631D10780E00807B1F7F89458
:02313000FFCFCF
:103132000000C3058000000000001C02E00CB30880
:103142001B02C207D9070302000000001603E00CAD
:103152007A015C03AB0189019D0100000000A20815
:103162008E08B3086208860872086308000000002F
:103172007002E00CB308B208700270027002000024
:1031820000007002E00CB308B208564D4450565F7E
:10319200317C315F564D4450560D0A006C6D003142
:0231A2003300F8
:020000023000CC
:10E000000D9489F10D94B2F10D94B2F10D94B2F129
:10E010000D94B2F10D94B2F10D94B2F10D94B2F1F0
:10E020000D94B2F10D94B2F10D94B2F10D94B2F1E0
:10E030000D94B2F10D94B2F10D94B2F10D94B2F1D0
:10E040000D94B2F10D94B2F10D94B2F10D94B2F1C0
:10E050000D94B2F10D94B2F10D94B2F10D94B2F1B0
:10E060000D94B2F10D94B2F10D94B2F10D94B2F1A0
:10E070000D94B2F10D94B2F10D94B2F10D94B2F190
:10E080000D94B2F10D94B2F10D94B2F10D94B2F180
:10E090000D94B2F10D94B2F10D94B2F10D94B2F170
:10E0A0000D94B2F10D94B2F10D94B2F10D94B2F160
:10E0B0000D94B2F10D94B2F10D94B2F10D94B2F150
:10E0C0000D94B2F10D94B2F10D94B2F10D94B2F140
:10E0D0000D94B2F10D94B2F10D94B2F10D94B2F130
:10E0E0000D94B2F141546D656761323536300041AF
:10E0F000726475696E6F206578706C6F72657220DE
:10E1000073746B3530305632206279204D4C530099
:10E11000426F6F746C6F616465723E004875683F52
:10E1200000436F6D70696C6564206F6E203D200048
:10E130004350552054797065202020203D20005FF9
:10E140005F4156525F415243485F5F3D2000415658
:10E1500052204C696243205665723D20004743437C
:10E160002056657273696F6E203D20004350552024
:10E1700049442020202020203D20004C6F7720663D
:10E18000757365202020203D20004869676820665F
:10E190007573652020203D200045787420667573D6
:10E1A00065202020203D20004C6F636B2066757336
:10E1B000652020203D20004D617220203720323024
:10E1C000313300312E362E3800342E332E350056A2
:10E1D00023202020414444522020206F7020636F70
:10E1E00064652020202020696E73747275637469E1
:10E1F0006F6E2061646472202020496E74657272B3
:10E20000757074006E6F20766563746F7200726A49
:10E210006D702020006A6D70200057686174207056
:10E220006F72743A00506F7274206E6F7420737541
:10E2300070706F72746564004D7573742062652030
:10E2400061206C6574746572002000577269747483
:10E25000696E672045450052656164696E672045B7
:10E26000450045452065727220636E743D00504F35
:10E27000525400303D5A65726F2061646472003FF1
:10E280003D43505520737461747300403D454550C3
:10E29000524F4D207465737400423D426C696E6B41
:10E2A000204C454400453D44756D70204545505215
:10E2B0004F4D00463D44756D7020464C415348001B
:10E2C000483D48656C70004C3D4C69737420492F83
:10E2D0004F20506F72747300513D51756974005234
:10E2E0003D44756D702052414D00563D73686F7707
:10E2F00020696E7465727275707420566563746FF0
:10E30000727300593D506F727420626C696E6B00BD
:10E310002A0011241FBECFEFD1E2DEBFCDBF01E046
:10E320000CBF12E0A0E0B2E0EEE1FDEF03E00BBFB6
:10E3300002C007900D92A030B107D9F712E0A0E01B
:10E34000B2E001C01D92AE30B107E1F70F9460F367
:10E350000D948DFE01E20EBF0FEF0DBF11241FBE05
:10E360000D9460F30D9400F020E030E040ED57E0B4
:10E3700005C0FA013197F1F72F5F3F4F2817390792
:10E38000C0F308959C01260F311DC901A0E0B0E043
:10E390002F5F3F4FABBFFC018791882361F08093D3
:10E3A000C6008091C00086FFFCCF8091C0008064D1
:10E3B0008093C000EACF08958DE08093C6008091DD
:10E3C000C00086FFFCCF8091C00080648093C000B5
:10E3D0008AE08093C6008091C00086FFFCCF8091C8
:10E3E000C00080648093C00008950F94C2F10F9420
:10E3F000DCF10895FC019081992359F09093C600B7
:10E400008091C00086FFFCCF8091C0008064809323
:10E41000C0003196992379F70895282F982F929567
:10E420009F70892F805D8A3308F0895F8093C600D2
:10E430008091C00086FFFCCF8091C00080648093F3
:10E44000C000822F8F70982F905D9A3308F0995FEB
:10E450009093C6008091C00086FFFCCF8091C000E1
:10E4600080648093C00008959C01FB01853691056E
:10E470001CF46330710594F0C90164E670E00F94F8
:10E480002EFE605D7F4F6093C6008091C00086FFC6
:10E49000FCCF8091C00080648093C0002B30310598
:10E4A00014F43297B4F0C90164E670E00F942EFEC4
:10E4B0006AE070E00F942EFE605D7F4F6093C600AF
:10E4C0008091C00086FFFCCF8091C0008064809363
:10E4D000C000C9016AE070E00F942EFEC0968093E0
:10E4E000C6008091C00086FFFCCF8091C000806490
:10E4F0008093C00008951F93182F8EE692EE60E07F
:10E500000F94C2F11093C6008091C00086FFFCCF2B
:10E510008091C00080648093C0000F94DCF11F9153
:10E5200008952F923F924F925F926F927F928F92B7
:10E530009F92AF92BF92CF92DF92EF92FF920F9392
:10E540001F93DF93CF93CDB7DEB762970FB6F894E2
:10E55000DEBF0FBECDBF382E622ECA01DB015C01CB
:10E560006D01772420E2222E2E010894411C511CBB
:10E570008BC081E0A81680E0B80681E0C80680E084
:10E58000D80628F0C601AA27BB270F940DF2BB2797
:10E59000AD2D9C2D8B2D0F940DF28A2D0F940DF225
:10E5A0002092C6008091C00086FFFCCF8091C00001
:10E5B00080648093C0009DE29093C6008091C0006B
:10E5C00086FFFCCF8091C00080648093C0002092C1
:10E5D000C6008091C00086FFFCCF8091C00080649F
:10E5E0008093C00019828601750188249924A1E0D6
:10E5F0003A1651F03A1620F0B2E03B1661F409C029
:10E600000BBFF701779007C0C7010F9477FE782EF4
:10E6100002C0F7017080872D0F940DF22092C60082
:10E620008091C00086FFFCCF8091C0008064809301
:10E63000C000872D8052F401EF70F0708F3520F408
:10E64000E40DF51D708204C0E40DF51D8EE280839B
:10E650000894E11CF11C011D111D0894811C911CE2
:10E6600090E18916910409F0C2CF80E190E0A0E02A
:10E67000B0E0A80EB91ECA1EDB1E198AC2010F9493
:10E68000FAF10F94DCF16A94662009F072CF629679
:10E690000FB6F894DEBF0FBECDBFCF91DF911F91B3
:10E6A0000F91FF90EF90DF90CF90BF90AF909F9031
:10E6B0008F907F906F905F904F903F902F90089534
:10E6C0002F923F924F925F926F927F928F929F9282
:10E6D000AF92BF92CF92DF92EF92FF920F931F9370
:10E6E000DF93CF93CDB7DEB7CD53D1400FB6F894BB
:10E6F000DEBF0FBECDBF01E20EBF0FEF0DBF94B75F
:10E70000F894A89514BE80916000886180936000A1
:10E7100010926000789493FF05C0E0910002F091A0
:10E7200001021995279A2F9A8091C00082608093E8
:10E73000C00080E18093C40088E18093C1000000A4
:10E74000EE24FF24870144E0A42EB12CCC24DD2448
:10E7500024C0C5010197F1F70894E11CF11C011DCB
:10E76000111D21E2E2162EE4F20620E0020720E06D
:10E77000120718F031E0C32ED12CC801B70127ECE5
:10E780003BE140E050E00F9441FE611571058105C9
:10E79000910519F485B1805885B98091C00087FD35
:10E7A00003C0C114D104A9F2A6014F5F5F4FC25E3E
:10E7B000DE4F59834883CE51D140C25EDE4F8881FF
:10E7C0009981CE51D140019711F00D9410FEC05D9A
:10E7D000DE4F19821882C053D14060E0C15DDE4F28
:10E7E0001882CF52D14088249924C35DDE4F19820C
:10E7F0001882CD52D140C05EDE4F188219821A8233
:10E800001B82C052D140CE5CDE4F188219821A8220
:10E810001B82C253D140EE24FF2487010BBFF701B6
:10E8200007911691C45CDE4F19830883CC53D14005
:10E830000D940BFEC25EDE4F28813981CE51D1404E
:10E840002130310509F52091C600C25EDE4F1982E4
:10E850001882CE51D14022C02F5F3F4F4F4F5F4FA4
:10E86000213082E138078AE7480780E0580780F0C6
:10E87000C45CDE4FE881F981CC53D140EF5FFF4F9C
:10E8800019F0EE27FF27099420E030E040E050E047
:10E890008091C00087FFE0CF2091C600C35DDE4FAE
:10E8A00048815981CD52D1404F5F5F4FC35DDE4FEC
:10E8B00059834883CD52D140213209F063C64A3092
:10E8C000510508F05FC60894811C911C53E0851621
:10E8D000910409F059C600E010E018C081E280936D
:10E8E000C6008091C00086FFFCCF8091C00080648C
:10E8F0008093C0002F5F3F4F2931310579F70F9486
:10E90000DCF10F5F1F4F0530110519F020E030E0FA
:10E91000E5CF10920A0210920B0210920C02109294
:10E920000D02109206021092070210920802109235
:10E930000902109202021092030210920402109235
:10E9400005028FEE90EE60E00F94F5F180E191EE1C
:10E9500060E00F94C2F18091C00087FFFCCF9091DE
:10E96000C600903608F09F759032B8F09093C600BC
:10E970008091C00086FFFCCF8091C00080648093AE
:10E98000C000A0E2A093C6008091C00086FFFCCF2B
:10E990008091C00080648093C000983409F4D7C18E
:10E9A0009934B8F4923409F459C1933458F490333B
:10E9B00019F1903308F4E3C59F33A1F1903409F0C5
:10E9C000DEC5BDC0953409F470C1963409F0D7C5D1
:10E9D00098C1923509F42BC2933538F49C3409F46C
:10E9E000F5C1913509F0CBC518C2963509F445C279
:10E9F000993509F0C4C567C483E792EE62E00F94CD
:10EA0000F5F110920602109207021092080210927D
:10EA1000090210920A0210920B0210920C0210923C
:10EA20000D0213C18FE792EE62E00F94F5F18FEEC5
:10EA300090EE60E00F94F5F181E291EE60E00F94CA
:10EA4000C2F187EB91EE60E00F94F5F180E391EE77
:10EA500060E00F94C2F184EE90EE60E00F94F5F167
:10EA60008FE391EE60E00F94C2F186E090E061E008
:10EA700070E00F9434F20F94DCF18DE591EE60E0DC
:10EA80000F94C2F189EC91EE60E00F94F5F18EE401
:10EA900091EE60E00F94C2F183EC91EE60E00F9490
:10EAA000F5F18CE691EE60E00F94C2F18EE10F94E7
:10EAB0000DF288E90F940DF281E00F940DF20F949E
:10EAC000DCF18BE791EE60E00F94C2F119E0E0E039
:10EAD000F0E010935700E4918E2F0F940DF20F94F5
:10EAE000DCF18AE891EE60E00F94C2F1E3E0F0E03F
:10EAF00010935700E4918E2F0F940DF20F94DCF1D8
:10EB000089E991EE60E00F94C2F1E2E0F0E0109349
:10EB10005700E4918E2F0F940DF20F94DCF188EAE8
:10EB200091EE60E00F94C2F1E1E0F0E01093570045
:10EB30001491812F0F940DF20F94DCF107CF8BE825
:10EB400092EE62E00F94F5F18BE492EE60E00F94A8
:10EB5000F5F10F94DCF100E010E019C0C8016F2D51
:10EB60000F947FFEFF2031F489E492EE60E00F9471
:10EB7000C2F10BC0F092C6008091C00086FFFCCFAE
:10EB80008091C00080648093C0000F5F1F4FC80158
:10EB900081519F41A0E0B0E0ABBFFC01F790BAE229
:10EBA000FB1621F0E2E000301E07C1F60F94DCF105
:10EBB0000F94DCF187E592EE60E00F94F5F10F948D
:10EBC000DCF1CC24DD2400E010E01EC0C8010F946D
:10EBD00077FEF82E882331F489E492EE60E00F94FA
:10EBE000C2F10BC08093C6008091C00086FFFCCFAD
:10EBF0008091C00080648093C000FE1419F00894D6
:10EC0000C11CD11C0F5F1F4FC80181519F41A0E063
:10EC1000B0E0ABBFFC01E790FAE2EF1621F022E092
:10EC20000030120799F60F94DCF10F94DCF182E6C4
:10EC300092EE60E00F94C2F1C60161E070E00F94C3
:10EC400034F20F94DCF10F94DCF110920202109276
:10EC50000302109204021092050278CE89E992EE26
:10EC600062E00F94F5F1279A2F9A16C02F9880E052
:10EC700090E0E0EDF7E03197F1F7019684369105E9
:10EC8000C1F72F9A80E090E0E0EDF7E03197F1F7DF
:10EC9000019684369105C1F78091C00087FFE6CFC9
:10ECA0008091C00087FFFCCF64C485EA92EE62E0E9
:10ECB0000F94F5F140910202509103026091040219
:10ECC0007091050281E020E10F9491F2809102029F
:10ECD00090910302A0910402B091050280509F4FD1
:10ECE000AF4FBF4F8093020290930302A0930402A0
:10ECF000B093050280509041A040B04008F426CE69
:10ED0000A4CF83EB92EE62E00F94F5F140910602FE
:10ED100050910702609108027091090280E020E1A1
:10ED20000F9491F28091060290910702A09108023F
:10ED3000B091090280509F4FAF4FBF4F80930602A2
:10ED400090930702A0930802B0930902FFCD80ECD4
:10ED500092EE62E00F94F5F183E792EE60E00F949B
:10ED6000F5F18FE792EE60E00F94F5F18BE892EE0B
:10ED700060E00F94F5F189E992EE60E00F94F5F10F
:10ED800085EA92EE60E00F94F5F183EB92EE60E09D
:10ED90000F94F5F180EC92EE60E00F94F5F187ECC2
:10EDA00092EE60E00F94F5F188ED92EE60E00F9442
:10EDB000F5F18FED92EE60E00F94F5F18AEE92EEB0
:10EDC00060E00F94F5F183E093EEBDCD87EC92EE19
:10EDD00062E00F94F5F181E40F947BF282E40F94EA
:10EDE0007BF283E40F947BF284E40F947BF285E45E
:10EDF0000F947BF286E40F947BF287E40F947BF20E
:10EE000088E40F947BF28AE40F947BF28BE40F94F6
:10EE10007BF28CE40F947BF299CD88ED92EE62E068
:10EE20000F94F5F1772473948824992409C48FED05
:10EE300092EE62E00F94F5F140910A0250910B02BC
:10EE400060910C0270910D0282E020E10F9491F22A
:10EE500080910A0290910B02A0910C02B0910D02D8
:10EE600080509F4FAF4FBF4F80930A0290930B0289
:10EE7000A0930C02B0930D0269CD8AEE92EE62E08F
:10EE80000F94F5F184EE90EE60E00F94F5F18FECC5
:10EE900091EE60E00F94F5F1662477244301CC5D98
:10EEA000DE4F19821882C452D140D401C301B695F5
:10EEB000A79597958795CA5DDE4F88839983AA8326
:10EEC000BB83C652D140CC5DDE4FA881B981C4520C
:10EED000D1401196CC5DDE4FB983A883C452D14096
:10EEE000CD0162E070E00F9434F2B0E2B093C6005E
:10EEF0008091C00086FFFCCF8091C0008064809329
:10EF0000C000EDE2E093C6008091C00086FFFCCF18
:10EF10008091C00080648093C000F0E2F093C6004E
:10EF20008091C00086FFFCCF8091C00080648093F8
:10EF3000C000CA5DDE4FE880F9800A811B81C6529D
:10EF4000D140BB27A12F902F8F2D0F940DF2CA5DBA
:10EF5000DE4F8881C652D1400F940DF2B0E2FB2EF5
:10EF6000F092C6008091C00086FFFCCF8091C00067
:10EF700080648093C0000DE30093C6008091C000C0
:10EF800086FFFCCF8091C00080648093C00010E2B7
:10EF90001093C6008091C00086FFFCCF8091C00016
:10EFA00080648093C0008BBEF3012791C65DDE4F65
:10EFB0002883CA52D140A22EBB24CC24DD2408943D
:10EFC000611C711C811C911C8BBEF3018791282E42
:10EFD0003324442455240894611C711C811C911C09
:10EFE0008BBEF3013791C55DDE4F3883CB52D140E4
:10EFF0000894611C711C811C911C8BBEF30147910C
:10F00000C45DDE4F4883CC52D140ADEFEA2EAFEF66
:10F01000FA2EAFEF0A2FAFEF1A2F6E0C7F1C801E57
:10F02000911E142D032DF22CEE24EA0CFB1C0C1D5A
:10F030001D1D0F940DF220E22093C6008091C000A8
:10F0400086FFFCCF8091C00080648093C000C65DC5
:10F05000DE4F8881CA52D1400F940DF230E23093D6
:10F06000C6008091C00086FFFCCF8091C000806404
:10F070008093C000C45DDE4F8881CC52D1400F9494
:10F080000DF240E24093C6008091C00086FFFCCFA5
:10F090008091C00080648093C000C55DDE4F888190
:10F0A000CB52D1400F940DF250E25093C6008091A4
:10F0B000C00086FFFCCF8091C00080648093C000B8
:10F0C0008FEFE8168FEFF80680E0080780E018075A
:10F0D00031F484E092EE60E00F94C2F1DFC0D80119
:10F0E000C7018070907CA070B0708050904CA040A0
:10F0F000B040D1F52FEF3FE340E050E0E222F322B1
:10F1000004231523CA5DDE4FA880B980CA80DB8046
:10F11000C652D140AE0CBF1CC01ED11EAA0CBB1CD7
:10F12000CC1CDD1C8EE092EE60E00F94C2F1BB2798
:10F13000A12F902F8F2D0F940DF28E2D0F940DF285
:10F1400030E23093C6008091C00086FFFCCF8091F2
:10F15000C00080648093C0004EE34093C60080915D
:10F16000C00086FFFCCF87C08EE09EEFA0E0B0E03D
:10F17000E822F9220A231B239CE0E91694E9F90608
:10F1800090E0090790E0190709F088C0C45DDE4FE0
:10F19000A881CC52D140EA2EFF2400E010E0102FCD
:10F1A0000F2DFE2CEE24C55DDE4FB881CB52D14031
:10F1B000EB0EF11C011D111DD601C501817090706F
:10F1C000A070B070DC0199278827E80EF91E0A1F8D
:10F1D0001B1F20EF30E040E050E0A222B322C42207
:10F1E000D52241E1AA0CBB1CCC1CDD1C4A95D1F7F1
:10F1F000EA0CFB1C0C1D1D1D81E090E0A0E0B0E0BE
:10F20000282239224A225B2235E1220C331C441C7D
:10F21000551C3A95D1F7E20CF31C041D151D57013E
:10F220006801AA0CBB1CCC1CDD1C85E192EE60E0E1
:10F230000F94C2F1C801AA27BB270F940DF2BB2778
:10F24000A12F902F8F2D0F940DF28E2D0F940DF274
:10F2500090E29093C6008091C00086FFFCCF809121
:10F26000C00080648093C000AEE3A093C60080918C
:10F27000C00086FFFCCF8091C00080648093C000F6
:10F28000C601AA27BB270F940DF2BB27AD2D9C2DDD
:10F290008B2D0F940DF28A2D0F940DF20F94DCF14B
:10F2A000CC5DDE4FE881F981C452D140F99709F471
:10F2B0004DCBF4E0EF2EF12C012D112D6E0C7F1CA7
:10F2C000801E911EF2CD83E093EE62E00F94F5F183
:10F2D0008AE192EE60E00F94C2F18091C00087FF56
:10F2E000FCCF1091C6001F751093C6008091C0001E
:10F2F00086FFFCCF8091C00080648093C0000F9493
:10F30000DCF1812F81548A3108F036C1163409F4BA
:10F3100095C0173490F4133409F44EC0143430F40B
:10F320001134F1F0123409F01DC130C0143409F465
:10F3300059C0153409F016C16BC01A3409F4C4C0A1
:10F340001B3438F4173409F48FC0183409F00AC19B
:10F35000A1C01B3409F4D2C01C3409F003C1E8C0B9
:10F360008FEF81B90DC082B1809582B980E090E0C5
:10F37000E0EDF7E03197F1F70196883C9105C1F790
:10F380008091C00087FFEFCF12B8EFC08FEF84B934
:10F390000DC085B1809585B980E090E0E0EDF7E0A3
:10F3A0003197F1F70196883C9105C1F78091C00033
:10F3B00087FFEFCF15B8D9C08FEF87B90DC088B1DF
:10F3C000809588B980E090E0E0EDF7E03197F1F7C3
:10F3D0000196883C9105C1F78091C00087FFEFCF6F
:10F3E00018B8C3C08FEF8AB90DC08BB180958BB9A7
:10F3F00080E090E0E0EDF7E03197F1F70196883C8E
:10F400009105C1F78091C00087FFEFCF1BB8ADC059
:10F410008FEF8DB90DC08EB180958EB980E090E0F0
:10F42000E0EDF7E03197F1F70196883C9105C1F7DF
:10F430008091C00087FFEFCF1EB897C08FEF80BBD1
:10F440000DC081B3809581BB80E090E0E0EDF7E0F6
:10F450003197F1F70196883C9105C1F78091C00082
:10F4600087FFEFCF11BA81C08FEF83BB0DC084B38C
:10F47000809584BB80E090E0E0EDF7E03197F1F714
:10F480000196883C9105C1F78091C00087FFEFCFBE
:10F4900014BA6BC08FEF809301010FC080910201FD
:10F4A00080958093020180E090E0E0EDF7E03197F5
:10F4B000F1F70196883C9105C1F78091C00087FF64
:10F4C000EDCF1092020151C08FEF809304010FC065
:10F4D0008091050180958093050180E090E0E0ED4A
:10F4E000F7E03197F1F70196883C9105C1F78091DB
:10F4F000C00087FFEDCF1092050137C08FEF8093DA
:10F5000007010FC08091080180958093080180E079
:10F5100090E0E0EDF7E03197F1F70196883C910536
:10F52000C1F78091C00087FFEDCF109208011DC088
:10F530008FEF80930A010FC080910B01809580931B
:10F540000B0180E090E0E0EDF7E03197F1F70196F4
:10F55000883C9105C1F78091C00087FFEDCF1092E4
:10F560000B0103C085E292EEEEC98091C00087FFD7
:10F57000FCCF8091C600EAC988E392EEE4C98CE131
:10F5800091EEE1C988249924933011F1943028F444
:10F59000913089F09230B8F408C0953061F195301F
:10F5A000F0F0963009F048C043C02B3109F042C951
:10F5B00091E06BE13FC96227C15DDE4F2883CF52E6
:10F5C000D14092E037C9B22FA0E0622793E032C960
:10F5D000822F90E0A82BB92B622794E02BC92E3004
:10F5E00009F039C3622795E0C05DDE4F19821882A9
:10F5F000C053D1401FC9E1E0F0E0EC0FFD1FC05D3A
:10F60000DE4F08811981C053D140E00FF11F2083E4
:10F610000F5F1F4FC05DDE4F19830883C053D14079
:10F6200062270A171B0709F005C9D80196E002C92D
:10F63000261709F010C303C0973009F0FBC87724E0
:10F640009981933109F412C19431C8F4963009F4C8
:10F65000D8C0973050F4923009F406C1933009F4C1
:10F660006DC0913009F059C253C0913109F477C08F
:10F67000923108F0BBC0903109F04FC2F5C098310B
:10F6800009F487C0993150F4953109F4EFC09531F0
:10F6900008F4C6C1963109F040C2C2C19A3109F4DA
:10F6A0006CC09A3108F491C09B3109F45BC09D3164
:10F6B00009F033C29D81903359F48F81882311F46E
:10F6C0009EE11CC0813011F091E018C098E916C08D
:10F6D000892F807591F0903539F4E0E0F0E089E011
:10F6E0008093570094910AC0983539F4E3E0F0E034
:10F6F00089E080935700949101C090E01A821B82A8
:10F700008D818C831D829E831F8227E030E009C299
:10F710001A8288E08B8381E48C8386E58D8382E581
:10F720008E8389E48F8383E5888780E589878FE5E9
:10F730008A8782E38B872BE030E0F3C18A818139AD
:10F7400041F0823941F0803911F48FE005C080E04A
:10F7500003C082E001C08AE01A828B8344C0772410
:10F76000739482C08D81882311F48EE12CC0813086
:10F7700011F081E028C088E926C01A82E1E0F0E0BB
:10F7800089E08093570084918B831C8224E030E0D1
:10F79000C8C18B81803589F48C81883039F4E2E0EE
:10F7A000F0E089E08093570084910DC0E0E0F0E044
:10F7B00089E080935700849106C0E3E0F0E089E09F
:10F7C0008093570084911A82DFCF8D81836C99E0FA
:10F7D000E1E0F0E0082E90935700E89507B600FCB2
:10F7E000FDCF1A821B8223E030E09BC180EC8A832C
:10F7F000CE5CDE4F188219821A821B82C253D1401E
:10F800008EC18A8190E0A0E0B0E0582F44273327D2
:10F8100022278B8190E0A0E0B0E0DC0199278827C7
:10F82000282B392B4A2B5B2B8D8190E0A0E0B0E098
:10F83000282B392B4A2B5B2B8C8190E0A0E0B0E089
:10F84000BA2FA92F982F8827282B392B4A2B5B2BCF
:10F85000220F331F441F551FC05EDE4F288339839C
:10F860004A835B83C052D1401A8259C13A81C95C34
:10F87000DE4F3883C753D140CA5CDE4F1882C6536F
:10F88000D1408B81C82EDD24CA5CDE4F488159816E
:10F89000C653D140C42AD52A933109F082C0CE5C28
:10F8A000DE4F88819981AA81BB81C253D1408050AB
:10F8B000904CA340B04030F583E0CE5CDE4FE88052
:10F8C000F9800A811B81C253D140F70100935B008C
:10F8D00080935700E89507B600FCFDCFCE5CDE4F65
:10F8E000088119812A813B81C253D14000501F4FAA
:10F8F0002F4F3F4FCE5CDE4F088319832A833B8313
:10F90000C253D140C05EDE4F488159816A817B81FC
:10F91000C052D140DE011B9631E08C9111962C91A2
:10F9200011971296C75CDE4F2883C953D140C85C3B
:10F93000DE4F1882C853D14090E0C85CDE4FE881AA
:10F94000F981C853D1408E2B9F2B0C01FA01609393
:10F950005B0030935700E89511244E5F5F4F6F4F67
:10F960007F4F0EEFE02E0FEFF02ECE0CDF1CC114F8
:10F97000D10499F685E0C05EDE4F088119812A81A5
:10F980003B81C052D140F80120935B008093570027
:10F99000E89507B600FCFDCF81E180935700E8951C
:10F9A00035C0C05EDE4F88819981AA81BB81C0527B
:10F9B000D140B695A795979587957C018601ABE0D8
:10F9C000AA2EB12CAC0EBD1E0BC0D5016D915D01F0
:10F9D000C7010F947FFE0894E11CF11C01501040F8
:10F9E0000115110591F7A60160E070E0440F551F65
:10F9F000661F771FC05EDE4FE880F9800A811B8199
:10FA0000C052D1404E0D5F1D601F711F1A82C05E33
:10FA1000DE4F488359836A837B83C052D1407FC0C5
:10FA2000FA80C55CDE4FF882CB53D140C65CDE4F16
:10FA30001882CA53D1408B81C82EDD24C65CDE4FAC
:10FA400008811981CA53D140C02AD12A1A828981DA
:10FA5000BE016D5F7F4F843121F59601C05EDE4FA0
:10FA6000E880F9800A811B81C052D1400BBFF701A9
:10FA700087919691DB018C9311969C936E5F7F4FDB
:10FA8000D801C7010296A11DB11DC05EDE4F88835B
:10FA90009983AA83BB83C052D14022503040F1F6F3
:10FAA00036C0C05EDE4F288139814A815B81C052F9
:10FAB000D1400894C108D108760100E010E0089414
:10FAC000C11CD11C0894E11CF11C011D111DE20E8A
:10FAD000F31E041F151F21BDBB27A52F942F832FB5
:10FAE00082BD2F5F3F4F4F4F5F4FF89A80B5DB01CC
:10FAF0008D93BD012E153F054007510761F7C05E8C
:10FB0000DE4F288339834A835B83C052D1409601FC
:10FB10002D5F3F4FFB01108204C080EC8A8322E0FE
:10FB200030E08BE18093C6008091C00086FFFCCF5F
:10FB30008091C00080648093C000C15DDE4FF88179
:10FB4000CF52D140F093C6008091C00086FFFCCF19
:10FB50008091C00080648093C000432F3093C60022
:10FB60008091C00086FFFCCF8091C00080648093AC
:10FB7000C000922F2093C6008091C00086FFFCCF6A
:10FB80008091C00080648093C0008EE08093C600A6
:10FB90008091C00086FFFCCF8091C000806480937C
:10FBA000C00065E1C15DDE4FE880CF52D1406E25D7
:10FBB00069276427FE01319610C090819093C6009A
:10FBC0008091C00086FFFCCF31968091C000806498
:10FBD0008093C0006927215030402115310569F715
:10FBE0006093C6008091C00086FFFCCF8091C0006A
:10FBF00080648093C00085B1805885B9772081F4F6
:10FC0000C15DDE4F0881CF52D1400F5FC15DDE4F35
:10FC10000883CF52D14090E0A0E0B0E00D941AF4F8
:10FC200027982F9880E090E020ED37E0F901319798
:10FC3000F1F7019684369105C9F700008091C00064
:10FC40008D7F8093C00081E180935700E895EE2777
:10FC5000FF270994FFCF90E00D941AF497FB092E2B
:10FC600007260AD077FD04D02ED006D000201AF443
:10FC7000709561957F4F0895F6F7909581959F4F08
:10FC80000895A1E21A2EAA1BBB1BFD010DC0AA1FDD
:10FC9000BB1FEE1FFF1FA217B307E407F50720F0F5
:10FCA000A21BB30BE40BF50B661F771F881F991F70
:10FCB0001A9469F760957095809590959B01AC01B9
:10FCC000BD01CF010895AA1BBB1B51E107C0AA1FAC
:10FCD000BB1FA617B70710F0A61BB70B881F991FED
:10FCE0005A95A9F780959095BC01CD010895F99991
:10FCF000FECF92BD81BDF89A992780B50895262F31
:10FD0000F999FECF1FBA92BD81BD20BD0FB6F89400
:0EFD1000FA9AF99A0FBE01960895F894FFCF63
:040000033000E000E9
:00000001FF